{
  "abi": [
    {
      "inputs": [],
      "stateMutability": "nonpayable",
      "type": "constructor"
    },
    {
      "inputs": [
        {
          "internalType": "address",
          "name": "target",
          "type": "address"
        }
      ],
      "name": "AddressEmptyCode",
      "type": "error"
    },
    {
      "inputs": [
        {
          "internalType": "address",
          "name": "account",
          "type": "address"
        }
      ],
      "name": "AddressInsufficientBalance",
      "type": "error"
    },
    {
      "inputs": [],
      "name": "FailedInnerCall",
      "type": "error"
    },
    {
      "inputs": [
        {
          "internalType": "address",
          "name": "owner",
          "type": "address"
        }
      ],
      "name": "OwnableInvalidOwner",
      "type": "error"
    },
    {
      "inputs": [
        {
          "internalType": "address",
          "name": "account",
          "type": "address"
        }
      ],
      "name": "OwnableUnauthorizedAccount",
      "type": "error"
    },
    {
      "inputs": [
        {
          "internalType": "address",
          "name": "token",
          "type": "address"
        }
      ],
      "name": "SafeERC20FailedOperation",
      "type": "error"
    },
    {
      "anonymous": false,
      "inputs": [
        {
          "indexed": true,
          "internalType": "address",
          "name": "previousOwner",
          "type": "address"
        },
        {
          "indexed": true,
          "internalType": "address",
          "name": "newOwner",
          "type": "address"
        }
      ],
      "name": "OwnershipTransferred",
      "type": "event"
    },
    {
      "inputs": [
        {
          "internalType": "uint256",
          "name": "checkAmount",
          "type": "uint256"
        },
        {
          "internalType": "address[]",
          "name": "path",
          "type": "address[]"
        },
        {
          "internalType": "address",
          "name": "router",
          "type": "address"
        }
      ],
      "name": "_check",
      "outputs": [
        {
          "components": [
            {
              "internalType": "uint256",
              "name": "buyGas",
              "type": "uint256"
            },
            {
              "internalType": "uint256",
              "name": "sellGas",
              "type": "uint256"
            },
            {
              "internalType": "uint256",
              "name": "estimatedBuy",
              "type": "uint256"
            },
            {
              "internalType": "uint256",
              "name": "exactBuy",
              "type": "uint256"
            },
            {
              "internalType": "uint256",
              "name": "estimatedSell",
              "type": "uint256"
            },
            {
              "internalType": "uint256",
              "name": "exactSell",
              "type": "uint256"
            }
          ],
          "internalType": "struct HoneypotChecker.CheckerResponse",
          "name": "",
          "type": "tuple"
        }
      ],
      "stateMutability": "nonpayable",
      "type": "function"
    },
    {
      "inputs": [],
      "name": "factory",
      "outputs": [
        {
          "internalType": "contract IFactory",
          "name": "",
          "type": "address"
        }
      ],
      "stateMutability": "view",
      "type": "function"
    },
    {
      "inputs": [
        {
          "internalType": "contract IRouter",
          "name": "router",
          "type": "address"
        },
        {
          "internalType": "address",
          "name": "baseToken",
          "type": "address"
        },
        {
          "internalType": "address",
          "name": "targetedToken",
          "type": "address"
        }
      ],
      "name": "getLiquidity",
      "outputs": [
        {
          "internalType": "uint256",
          "name": "",
          "type": "uint256"
        }
      ],
      "stateMutability": "view",
      "type": "function"
    },
    {
      "inputs": [
        {
          "internalType": "uint256",
          "name": "nonce",
          "type": "uint256"
        }
      ],
      "name": "getPurchaseData",
      "outputs": [
        {
          "components": [
            {
              "internalType": "bool",
              "name": "processed",
              "type": "bool"
            },
            {
              "internalType": "address[]",
              "name": "path",
              "type": "address[]"
            },
            {
              "internalType": "uint256",
              "name": "baseTokenAmount",
              "type": "uint256"
            },
            {
              "internalType": "uint256",
              "name": "targetTokenAmount",
              "type": "uint256"
            },
            {
              "internalType": "uint256",
              "name": "buyFees",
              "type": "uint256"
            },
            {
              "internalType": "uint256",
              "name": "sellFees",
              "type": "uint256"
            }
          ],
          "internalType": "struct SnipingContract.Purchase",
          "name": "",
          "type": "tuple"
        }
      ],
      "stateMutability": "view",
      "type": "function"
    },
    {
      "inputs": [
        {
          "internalType": "address[]",
          "name": "path",
          "type": "address[]"
        },
        {
          "internalType": "uint256",
          "name": "checkAmount",
          "type": "uint256"
        },
        {
          "internalType": "uint256",
          "name": "maxFees",
          "type": "uint256"
        },
        {
          "internalType": "address",
          "name": "router",
          "type": "address"
        }
      ],
      "name": "isHoneypot",
      "outputs": [
        {
          "internalType": "bool",
          "name": "",
          "type": "bool"
        },
        {
          "internalType": "uint256",
          "name": "",
          "type": "uint256"
        },
        {
          "internalType": "uint256",
          "name": "",
          "type": "uint256"
        }
      ],
      "stateMutability": "nonpayable",
      "type": "function"
    },
    {
      "inputs": [
        {
          "internalType": "uint256",
          "name": "",
          "type": "uint256"
        }
      ],
      "name": "noncePurchases",
      "outputs": [
        {
          "internalType": "bool",
          "name": "processed",
          "type": "bool"
        },
        {
          "internalType": "uint256",
          "name": "baseTokenAmount",
          "type": "uint256"
        },
        {
          "internalType": "uint256",
          "name": "targetTokenAmount",
          "type": "uint256"
        },
        {
          "internalType": "uint256",
          "name": "buyFees",
          "type": "uint256"
        },
        {
          "internalType": "uint256",
          "name": "sellFees",
          "type": "uint256"
        }
      ],
      "stateMutability": "view",
      "type": "function"
    },
    {
      "inputs": [],
      "name": "owner",
      "outputs": [
        {
          "internalType": "address",
          "name": "",
          "type": "address"
        }
      ],
      "stateMutability": "view",
      "type": "function"
    },
    {
      "inputs": [],
      "name": "renounceOwnership",
      "outputs": [],
      "stateMutability": "nonpayable",
      "type": "function"
    },
    {
      "inputs": [
        {
          "internalType": "uint256",
          "name": "nonce",
          "type": "uint256"
        },
        {
          "internalType": "uint256",
          "name": "amount",
          "type": "uint256"
        },
        {
          "components": [
            {
              "internalType": "address",
              "name": "router",
              "type": "address"
            },
            {
              "internalType": "bool",
              "name": "checkHoneyPot",
              "type": "bool"
            },
            {
              "internalType": "address[]",
              "name": "path",
              "type": "address[]"
            },
            {
              "internalType": "address[]",
              "name": "wallets",
              "type": "address[]"
            },
            {
              "internalType": "uint256",
              "name": "minimumLiqBaseToken",
              "type": "uint256"
            },
            {
              "internalType": "uint256",
              "name": "slippage",
              "type": "uint256"
            },
            {
              "internalType": "uint256",
              "name": "maxFees",
              "type": "uint256"
            }
          ],
          "internalType": "struct SnipingContract.PurchaseParams",
          "name": "params",
          "type": "tuple"
        }
      ],
      "name": "spamBuy",
      "outputs": [
        {
          "internalType": "uint256",
          "name": "",
          "type": "uint256"
        },
        {
          "internalType": "uint256",
          "name": "",
          "type": "uint256"
        }
      ],
      "stateMutability": "nonpayable",
      "type": "function"
    },
    {
      "inputs": [
        {
          "internalType": "address",
          "name": "newOwner",
          "type": "address"
        }
      ],
      "name": "transferOwnership",
      "outputs": [],
      "stateMutability": "nonpayable",
      "type": "function"
    },
    {
      "inputs": [
        {
          "internalType": "address",
          "name": "token",
          "type": "address"
        },
        {
          "internalType": "uint256",
          "name": "amount",
          "type": "uint256"
        }
      ],
      "name": "withdrawFund",
      "outputs": [],
      "stateMutability": "nonpayable",
      "type": "function"
    },
    {
      "stateMutability": "payable",
      "type": "receive"
    }
  ],
  "bytecode": {
    "object": "0x60806040526000196001553480156200001757600080fd5b5033806200003f57604051631e4fbdf760e01b81526000600482015260240160405180910390fd5b6200004a8162000051565b50620000a1565b600080546001600160a01b038381166001600160a01b0319831681178455604051919092169283917f8be0079c531659141344cd1fd0a4f28419497f9722a3daafe3b4186f6b6457e09190a35050565b612cef80620000b16000396000f3fe6080604052600436106100c05760003560e01c8063a26051aa11610074578063e5bd492f1161004e578063e5bd492f146102e4578063f2fde38b14610312578063f7c8d2211461033257600080fd5b8063a26051aa1461021e578063c45a01551461024b578063c530df6d1461027857600080fd5b80637c6027bd116100a55780637c6027bd146101255780638ce1dffb1461015a5780638da5cb5b146101d257600080fd5b806362ec9e37146100cc578063715018a61461010e57600080fd5b366100c757005b600080fd5b3480156100d857600080fd5b506100ec6100e736600461248d565b610352565b6040805193151584526020840192909252908201526060015b60405180910390f35b34801561011a57600080fd5b506101236104e9565b005b34801561013157600080fd5b506101456101403660046124f8565b6104fd565b60408051928352602083019190915201610105565b34801561016657600080fd5b506101a861017536600461254f565b60036020819052600091825260409091208054600282015492820154600483015460059093015460ff9092169392909185565b6040805195151586526020860194909452928401919091526060830152608082015260a001610105565b3480156101de57600080fd5b5060005473ffffffffffffffffffffffffffffffffffffffff165b60405173ffffffffffffffffffffffffffffffffffffffff9091168152602001610105565b34801561022a57600080fd5b5061023e61023936600461254f565b610d37565b6040516101059190612568565b34801561025757600080fd5b506002546101f99073ffffffffffffffffffffffffffffffffffffffff1681565b34801561028457600080fd5b50610298610293366004612605565b610e32565b6040516101059190600060c082019050825182526020830151602083015260408301516040830152606083015160608301526080830151608083015260a083015160a083015292915050565b3480156102f057600080fd5b506103046102ff366004612664565b6116b2565b604051908152602001610105565b34801561031e57600080fd5b5061012361032d3660046126a4565b61190d565b34801561033e57600080fd5b5061012361034d3660046126c1565b611971565b60008060008060003073ffffffffffffffffffffffffffffffffffffffff16888b8b896040516024016103889493929190612743565b604080517fffffffffffffffffffffffffffffffffffffffffffffffffffffffffffffffe08184030181529181526020820180517bffffffffffffffffffffffffffffffffffffffffffffffffffffffff167fc530df6d00000000000000000000000000000000000000000000000000000000179052516104099190612784565b6000604051808303816000865af19150503d8060008114610446576040519150601f19603f3d011682016040523d82523d6000602084013e61044b565b606091505b50915091506000818060200190518101906104669190612831565b905082156104cf57600061048282604001518360600151611a4a565b9050600061049883608001518460a00151611a4a565b9050896104a582846128da565b11156104bd576001975090955093506104de92505050565b6000975090955093506104de92505050565b60016000809550955095505050505b955095509592505050565b6104f1611a8b565b6104fb6000611ade565b565b600080610508611a8b565b600061051760408501856128ed565b600161052660408801886128ed565b610531929150612955565b81811061054057610540612968565b905060200201602081019061055591906126a4565b60008781526003602052604090205490915060ff16156105d6576040517f08c379a000000000000000000000000000000000000000000000000000000000815260206004820152601160248201527f416c72656164792070726f63657373656400000000000000000000000000000060448201526064015b60405180910390fd5b60016105e560608601866128ed565b9050101561064f576040517f08c379a000000000000000000000000000000000000000000000000000000000815260206004820152601260248201527f456d7074792077616c6c657473206c697374000000000000000000000000000060448201526064016105cd565b60808401356106b561066460208701876126a4565b61067160408801886128ed565b600261068060408b018b6128ed565b61068b929150612955565b81811061069a5761069a612968565b90506020020160208101906106af91906126a4565b846116b2565b101561071d576040517f08c379a000000000000000000000000000000000000000000000000000000000815260206004820152601460248201527f4e6f7420656e6f756768206c697175696469747900000000000000000000000060448201526064016105cd565b600061072c60208601866126a4565b73ffffffffffffffffffffffffffffffffffffffff1663ad5c46486040518163ffffffff1660e01b8152600401602060405180830381865afa158015610776573d6000803e3d6000fd5b505050506040513d601f19601f8201168201806040525081019061079a9190612997565b73ffffffffffffffffffffffffffffffffffffffff166107bd60408701876128ed565b60008181106107ce576107ce612968565b90506020020160208101906107e391906126a4565b73ffffffffffffffffffffffffffffffffffffffff16146108c65761080b60408601866128ed565b600081811061081c5761081c612968565b905060200201602081019061083191906126a4565b6040517f70a0823100000000000000000000000000000000000000000000000000000000815230600482015273ffffffffffffffffffffffffffffffffffffffff91909116906370a0823190602401602060405180830381865afa15801561089d573d6000803e3d6000fd5b505050506040513d601f19601f820116820180604052508101906108c191906129b4565b6108c8565b475b905085811015610934576040517f08c379a000000000000000000000000000000000000000000000000000000000815260206004820152601560248201527f4e6f7420656e6f756768206261736520746f6b656e000000000000000000000060448201526064016105cd565b6000620f42406109466103e8896129cd565b61095091906129e4565b90506000808061096660408a0160208b01612a2d565b156109fd5761098e61097b60408b018b6128ed565b8660c08d01356100e760208f018f6126a4565b9194509250905082156109fd576040517f08c379a000000000000000000000000000000000000000000000000000000000815260206004820152600960248201527f486f6e657920706f74000000000000000000000000000000000000000000000060448201526064016105cd565b6040517f70a0823100000000000000000000000000000000000000000000000000000000815230600482015260009073ffffffffffffffffffffffffffffffffffffffff8816906370a0823190602401602060405180830381865afa158015610a6a573d6000803e3d6000fd5b505050506040513d601f19601f82011682018060405250810190610a8e91906129b4565b9050610af2610a9d868d612955565b610aaa60408d018d6128ed565b8080602002602001604051908101604052809392919081815260200183836020028082843760009201919091525050505060a08d0135610aed60208f018f6126a4565b611b53565b506040517f70a08231000000000000000000000000000000000000000000000000000000008152306004820152600090829073ffffffffffffffffffffffffffffffffffffffff8a16906370a0823190602401602060405180830381865afa158015610b62573d6000803e3d6000fd5b505050506040513d601f19601f82011682018060405250810190610b8691906129b4565b610b909190612955565b6040805160c081018252600181529192506020820190610bb2908e018e6128ed565b80806020026020016040519081016040528093929190818152602001838360200280828437600081840152601f19601f8201169050808301925050505050505081526020018d815260200182815260200185815260200184815250600360008f815260200190815260200160002060008201518160000160006101000a81548160ff0219169083151502179055506020820151816001019080519060200190610c5c929190612380565b506040820151600282015560608083015160038301556080830151600483015560a090920151600590910155600090610c97908d018d6128ed565b610ca29150836129e4565b905060005b610cb460608e018e6128ed565b9050811015610d2257610d10610ccd60608f018f6128ed565b83818110610cdd57610cdd612968565b9050602002016020810190610cf291906126a4565b73ffffffffffffffffffffffffffffffffffffffff8c169084611f69565b80610d1a81612a4a565b915050610ca7565b50939d929c50919a5050505050505050505050565b610d726040518060c0016040528060001515815260200160608152602001600081526020016000815260200160008152602001600081525090565b600082815260036020908152604091829020825160c081018452815460ff161515815260018201805485518186028101860190965280865291949293858101939290830182828015610dfa57602002820191906000526020600020905b815473ffffffffffffffffffffffffffffffffffffffff168152600190910190602001808311610dcf575b505050505081526020016002820154815260200160038201548152602001600482015481526020016005820154815250509050919050565b610e6b6040518060c001604052806000815260200160008152602001600081526020016000815260200160008152602001600081525090565b60028314610e7857600080fd5b81600085858281610e8b57610e8b612968565b9050602002016020810190610ea091906126a4565b9050600086866001818110610eb757610eb7612968565b9050602002016020810190610ecc91906126a4565b60408051600280825260608201835292935060009290916020830190803683370190505090508373ffffffffffffffffffffffffffffffffffffffff1663ad5c46486040518163ffffffff1660e01b8152600401602060405180830381865afa158015610f3d573d6000803e3d6000fd5b505050506040513d601f19601f82011682018060405250810190610f619190612997565b73ffffffffffffffffffffffffffffffffffffffff168373ffffffffffffffffffffffffffffffffffffffff1614610fb957600154610fb99073ffffffffffffffffffffffffffffffffffffffff8516908890611fea565b600154610fdf9073ffffffffffffffffffffffffffffffffffffffff8416908890611fea565b6040517fd06ca61f00000000000000000000000000000000000000000000000000000000815260009073ffffffffffffffffffffffffffffffffffffffff86169063d06ca61f90611038908d908d908d90600401612a82565b600060405180830381865afa158015611055573d6000803e3d6000fd5b505050506040513d6000823e601f3d9081017fffffffffffffffffffffffffffffffffffffffffffffffffffffffffffffffe016820160405261109b9190810190612a9c565b6001815181106110ad576110ad612968565b60209081029190910101516040517f70a0823100000000000000000000000000000000000000000000000000000000815230600482015290915060009073ffffffffffffffffffffffffffffffffffffffff8516906370a0823190602401602060405180830381865afa158015611128573d6000803e3d6000fd5b505050506040513d601f19601f8201168201806040525081019061114c91906129b4565b9050600061119e8c8c8c808060200260200160405190810160405280939291908181526020018383602002808284376000920191909152506111989250600a9150620f424090506129e4565b8a611b53565b6040517f70a08231000000000000000000000000000000000000000000000000000000008152306004820152909150600090839073ffffffffffffffffffffffffffffffffffffffff8816906370a0823190602401602060405180830381865afa158015611210573d6000803e3d6000fd5b505050506040513d601f19601f8201168201806040525081019061123491906129b4565b61123e9190612955565b90508b8b600181811061125357611253612968565b905060200201602081019061126891906126a4565b8560008151811061127b5761127b612968565b602002602001019073ffffffffffffffffffffffffffffffffffffffff16908173ffffffffffffffffffffffffffffffffffffffff16815250508b8b60008181106112c8576112c8612968565b90506020020160208101906112dd91906126a4565b856001815181106112f0576112f0612968565b73ffffffffffffffffffffffffffffffffffffffff92831660209182029290920101526040517fd06ca61f0000000000000000000000000000000000000000000000000000000081526000918a169063d06ca61f906113559085908a90600401612b88565b600060405180830381865afa158015611372573d6000803e3d6000fd5b505050506040513d6000823e601f3d9081017fffffffffffffffffffffffffffffffffffffffffffffffffffffffffffffffe01682016040526113b89190810190612a9c565b6001815181106113ca576113ca612968565b602002602001015190508873ffffffffffffffffffffffffffffffffffffffff1663ad5c46486040518163ffffffff1660e01b8152600401602060405180830381865afa15801561141f573d6000803e3d6000fd5b505050506040513d601f19601f820116820180604052508101906114439190612997565b73ffffffffffffffffffffffffffffffffffffffff168873ffffffffffffffffffffffffffffffffffffffff1614611508576040517f70a0823100000000000000000000000000000000000000000000000000000000815230600482015273ffffffffffffffffffffffffffffffffffffffff8916906370a0823190602401602060405180830381865afa1580156114df573d6000803e3d6000fd5b505050506040513d601f19601f8201168201806040525081019061150391906129b4565b61150a565b475b935060006115278388611521600a620f42406129e4565b8d611b53565b905060008a73ffffffffffffffffffffffffffffffffffffffff1663ad5c46486040518163ffffffff1660e01b8152600401602060405180830381865afa158015611576573d6000803e3d6000fd5b505050506040513d601f19601f8201168201806040525081019061159a9190612997565b73ffffffffffffffffffffffffffffffffffffffff168a73ffffffffffffffffffffffffffffffffffffffff161461166b576040517f70a08231000000000000000000000000000000000000000000000000000000008152306004820152869073ffffffffffffffffffffffffffffffffffffffff8c16906370a0823190602401602060405180830381865afa158015611638573d6000803e3d6000fd5b505050506040513d601f19601f8201168201806040525081019061165c91906129b4565b6116669190612955565b611675565b6116758647612955565b6040805160c0810182529687526020870193909352918501969096526060840192909252608083015260a08201529b9a5050505050505050505050565b6000808473ffffffffffffffffffffffffffffffffffffffff1663c45a01556040518163ffffffff1660e01b8152600401602060405180830381865afa158015611700573d6000803e3d6000fd5b505050506040513d601f19601f820116820180604052508101906117249190612997565b6040517fe6a4390500000000000000000000000000000000000000000000000000000000815273ffffffffffffffffffffffffffffffffffffffff86811660048301528581166024830152919091169063e6a4390590604401602060405180830381865afa15801561179a573d6000803e3d6000fd5b505050506040513d601f19601f820116820180604052508101906117be9190612997565b90506000808273ffffffffffffffffffffffffffffffffffffffff16630902f1ac6040518163ffffffff1660e01b8152600401606060405180830381865afa15801561180e573d6000803e3d6000fd5b505050506040513d601f19601f820116820180604052508101906118329190612bcc565b506dffffffffffffffffffffffffffff1691506dffffffffffffffffffffffffffff1691508573ffffffffffffffffffffffffffffffffffffffff168373ffffffffffffffffffffffffffffffffffffffff16630dfe16816040518163ffffffff1660e01b8152600401602060405180830381865afa1580156118b9573d6000803e3d6000fd5b505050506040513d601f19601f820116820180604052508101906118dd9190612997565b73ffffffffffffffffffffffffffffffffffffffff16146118fe5780611900565b815b93505050505b9392505050565b611915611a8b565b73ffffffffffffffffffffffffffffffffffffffff8116611965576040517f1e4fbdf7000000000000000000000000000000000000000000000000000000008152600060048201526024016105cd565b61196e81611ade565b50565b611979611a8b565b73ffffffffffffffffffffffffffffffffffffffff8216611a06576000805460405173ffffffffffffffffffffffffffffffffffffffff9091169083908381818185875af1925050503d80600081146119ee576040519150601f19603f3d011682016040523d82523d6000602084013e6119f3565b606091505b5050905080611a0157600080fd5b505050565b611a46611a2860005473ffffffffffffffffffffffffffffffffffffffff1690565b73ffffffffffffffffffffffffffffffffffffffff84169083611f69565b5050565b60008083620f4240611a5c8583612955565b611a6691906129cd565b611a7091906129e4565b90508015611a7e5780611a81565b60005b9150505b92915050565b60005473ffffffffffffffffffffffffffffffffffffffff1633146104fb576040517f118cdaa70000000000000000000000000000000000000000000000000000000081523360048201526024016105cd565b6000805473ffffffffffffffffffffffffffffffffffffffff8381167fffffffffffffffffffffffff0000000000000000000000000000000000000000831681178455604051919092169283917f8be0079c531659141344cd1fd0a4f28419497f9722a3daafe3b4186f6b6457e09190a35050565b6000805a90506000620f4240611b698682612955565b6040517fd06ca61f00000000000000000000000000000000000000000000000000000000815273ffffffffffffffffffffffffffffffffffffffff87169063d06ca61f90611bbd908c908c90600401612b88565b600060405180830381865afa158015611bda573d6000803e3d6000fd5b505050506040513d6000823e601f3d9081017fffffffffffffffffffffffffffffffffffffffffffffffffffffffffffffffe0168201604052611c209190810190612a9c565b600181518110611c3257611c32612968565b6020026020010151611c4491906129cd565b611c4e91906129e4565b90508373ffffffffffffffffffffffffffffffffffffffff1663ad5c46486040518163ffffffff1660e01b8152600401602060405180830381865afa158015611c9b573d6000803e3d6000fd5b505050506040513d601f19601f82011682018060405250810190611cbf9190612997565b73ffffffffffffffffffffffffffffffffffffffff1686600081518110611ce857611ce8612968565b602002602001015173ffffffffffffffffffffffffffffffffffffffff1603611d8c5773ffffffffffffffffffffffffffffffffffffffff841663b6f9de9588838930611d364260646128da565b6040518663ffffffff1660e01b8152600401611d559493929190612c11565b6000604051808303818588803b158015611d6e57600080fd5b505af1158015611d82573d6000803e3d6000fd5b5050505050611f53565b8373ffffffffffffffffffffffffffffffffffffffff1663ad5c46486040518163ffffffff1660e01b8152600401602060405180830381865afa158015611dd7573d6000803e3d6000fd5b505050506040513d601f19601f82011682018060405250810190611dfb9190612997565b73ffffffffffffffffffffffffffffffffffffffff168660018851611e209190612955565b81518110611e3057611e30612968565b602002602001015173ffffffffffffffffffffffffffffffffffffffff1603611ed55773ffffffffffffffffffffffffffffffffffffffff841663791ac94788838930611e7e4260646128da565b6040518663ffffffff1660e01b8152600401611e9e959493929190612c53565b600060405180830381600087803b158015611eb857600080fd5b505af1158015611ecc573d6000803e3d6000fd5b50505050611f53565b73ffffffffffffffffffffffffffffffffffffffff8416635c11d79588838930611f004260646128da565b6040518663ffffffff1660e01b8152600401611f20959493929190612c53565b600060405180830381600087803b158015611f3a57600080fd5b505af1158015611f4e573d6000803e3d6000fd5b505050505b5a611f5e9083612955565b979650505050505050565b60405173ffffffffffffffffffffffffffffffffffffffff838116602483015260448201839052611a0191859182169063a9059cbb906064015b604051602081830303815290604052915060e01b6020820180517bffffffffffffffffffffffffffffffffffffffffffffffffffffffff83818316178352505050506120c8565b6040805173ffffffffffffffffffffffffffffffffffffffff8416602482015260448082018490528251808303909101815260649091019091526020810180517bffffffffffffffffffffffffffffffffffffffffffffffffffffffff167f095ea7b300000000000000000000000000000000000000000000000000000000179052612076848261215e565b6120c25760405173ffffffffffffffffffffffffffffffffffffffff8481166024830152600060448301526120b891869182169063095ea7b390606401611fa3565b6120c284826120c8565b50505050565b60006120ea73ffffffffffffffffffffffffffffffffffffffff841683612220565b9050805160001415801561210f57508080602001905181019061210d9190612c9c565b155b15611a01576040517f5274afe700000000000000000000000000000000000000000000000000000000815273ffffffffffffffffffffffffffffffffffffffff841660048201526024016105cd565b60008060008473ffffffffffffffffffffffffffffffffffffffff16846040516121889190612784565b6000604051808303816000865af19150503d80600081146121c5576040519150601f19603f3d011682016040523d82523d6000602084013e6121ca565b606091505b50915091508180156121f45750805115806121f45750808060200190518101906121f49190612c9c565b8015612217575060008573ffffffffffffffffffffffffffffffffffffffff163b115b95945050505050565b606061190683836000846000808573ffffffffffffffffffffffffffffffffffffffff1684866040516122539190612784565b60006040518083038185875af1925050503d8060008114612290576040519150601f19603f3d011682016040523d82523d6000602084013e612295565b606091505b50915091506122a58683836122af565b9695505050505050565b6060826122c4576122bf8261233e565b611906565b81511580156122e8575073ffffffffffffffffffffffffffffffffffffffff84163b155b15612337576040517f9996b31500000000000000000000000000000000000000000000000000000000815273ffffffffffffffffffffffffffffffffffffffff851660048201526024016105cd565b5080611906565b80511561234e5780518082602001fd5b6040517f1425ea4200000000000000000000000000000000000000000000000000000000815260040160405180910390fd5b8280548282559060005260206000209081019282156123fa579160200282015b828111156123fa57825182547fffffffffffffffffffffffff00000000000000000000000000000000000000001673ffffffffffffffffffffffffffffffffffffffff9091161782556020909201916001909101906123a0565b5061240692915061240a565b5090565b5b80821115612406576000815560010161240b565b60008083601f84011261243157600080fd5b50813567ffffffffffffffff81111561244957600080fd5b6020830191508360208260051b850101111561246457600080fd5b9250929050565b73ffffffffffffffffffffffffffffffffffffffff8116811461196e57600080fd5b6000806000806000608086880312156124a557600080fd5b853567ffffffffffffffff8111156124bc57600080fd5b6124c88882890161241f565b909650945050602086013592506040860135915060608601356124ea8161246b565b809150509295509295909350565b60008060006060848603121561250d57600080fd5b8335925060208401359150604084013567ffffffffffffffff81111561253257600080fd5b840160e0818703121561254457600080fd5b809150509250925092565b60006020828403121561256157600080fd5b5035919050565b602080825282511515828201528281015160c06040840152805160e084018190526000929182019083906101008601905b808310156125cf57835173ffffffffffffffffffffffffffffffffffffffff168252928401926001929092019190840190612599565b506040870151606087015260608701516080870152608087015160a087015260a087015160c08701528094505050505092915050565b6000806000806060858703121561261b57600080fd5b84359350602085013567ffffffffffffffff81111561263957600080fd5b6126458782880161241f565b90945092505060408501356126598161246b565b939692955090935050565b60008060006060848603121561267957600080fd5b83356126848161246b565b925060208401356126948161246b565b915060408401356125448161246b565b6000602082840312156126b657600080fd5b81356119068161246b565b600080604083850312156126d457600080fd5b82356126df8161246b565b946020939093013593505050565b8183526000602080850194508260005b858110156127385781356127108161246b565b73ffffffffffffffffffffffffffffffffffffffff16875295820195908201906001016126fd565b509495945050505050565b84815260606020820152600061275d6060830185876126ed565b905073ffffffffffffffffffffffffffffffffffffffff8316604083015295945050505050565b6000825160005b818110156127a5576020818601810151858301520161278b565b506000920191825250919050565b7f4e487b7100000000000000000000000000000000000000000000000000000000600052604160045260246000fd5b604051601f82017fffffffffffffffffffffffffffffffffffffffffffffffffffffffffffffffe016810167ffffffffffffffff81118282101715612829576128296127b3565b604052919050565b600060c0828403121561284357600080fd5b60405160c0810181811067ffffffffffffffff82111715612866576128666127b3565b8060405250825181526020830151602082015260408301516040820152606083015160608201526080830151608082015260a083015160a08201528091505092915050565b7f4e487b7100000000000000000000000000000000000000000000000000000000600052601160045260246000fd5b80820180821115611a8557611a856128ab565b60008083357fffffffffffffffffffffffffffffffffffffffffffffffffffffffffffffffe184360301811261292257600080fd5b83018035915067ffffffffffffffff82111561293d57600080fd5b6020019150600581901b360382131561246457600080fd5b81810381811115611a8557611a856128ab565b7f4e487b7100000000000000000000000000000000000000000000000000000000600052603260045260246000fd5b6000602082840312156129a957600080fd5b81516119068161246b565b6000602082840312156129c657600080fd5b5051919050565b8082028115828204841417611a8557611a856128ab565b600082612a1a577f4e487b7100000000000000000000000000000000000000000000000000000000600052601260045260246000fd5b500490565b801515811461196e57600080fd5b600060208284031215612a3f57600080fd5b813561190681612a1f565b60007fffffffffffffffffffffffffffffffffffffffffffffffffffffffffffffffff8203612a7b57612a7b6128ab565b5060010190565b8381526040602082015260006122176040830184866126ed565b60006020808385031215612aaf57600080fd5b825167ffffffffffffffff80821115612ac757600080fd5b818501915085601f830112612adb57600080fd5b815181811115612aed57612aed6127b3565b8060051b9150612afe8483016127e2565b8181529183018401918481019088841115612b1857600080fd5b938501935b83851015612b3657845182529385019390850190612b1d565b98975050505050505050565b600081518084526020808501945080840160005b8381101561273857815173ffffffffffffffffffffffffffffffffffffffff1687529582019590820190600101612b56565b828152604060208201526000612ba16040830184612b42565b949350505050565b80516dffffffffffffffffffffffffffff81168114612bc757600080fd5b919050565b600080600060608486031215612be157600080fd5b612bea84612ba9565b9250612bf860208501612ba9565b9150604084015163ffffffff8116811461254457600080fd5b848152608060208201526000612c2a6080830186612b42565b73ffffffffffffffffffffffffffffffffffffffff949094166040830152506060015292915050565b85815284602082015260a060408201526000612c7260a0830186612b42565b73ffffffffffffffffffffffffffffffffffffffff94909416606083015250608001529392505050565b600060208284031215612cae57600080fd5b815161190681612a1f56fea264697066735822122021c9330161730289741d0ffc90b4074b2a408206870cc7077f29d7fc9f8ec69764736f6c63430008140033",
    "linkReferences": {}
  },
  "methodIdentifiers": {
    "_check(uint256,address[],address)": "c530df6d",
    "factory()": "c45a0155",
    "getLiquidity(address,address,address)": "e5bd492f",
    "getPurchaseData(uint256)": "a26051aa",
    "isHoneypot(address[],uint256,uint256,address)": "62ec9e37",
    "noncePurchases(uint256)": "8ce1dffb",
    "owner()": "8da5cb5b",
    "renounceOwnership()": "715018a6",
    "spamBuy(uint256,uint256,(address,bool,address[],address[],uint256,uint256,uint256))": "7c6027bd",
    "transferOwnership(address)": "f2fde38b",
    "withdrawFund(address,uint256)": "f7c8d221"
  },
  "id": 25
}